{
    "contractName": "AuctionFactoryV1",
    "abi": [
        {
            "inputs": [],
            "stateMutability": "nonpayable",
            "type": "constructor"
        },
        {
            "inputs": [
                {
                    "internalType": "address",
                    "name": "target",
                    "type": "address"
                }
            ],
            "name": "AddressEmptyCode",
            "type": "error"
        },
        {
            "inputs": [
                {
                    "internalType": "address",
                    "name": "implementation",
                    "type": "address"
                }
            ],
            "name": "ERC1967InvalidImplementation",
            "type": "error"
        },
        {
            "inputs": [],
            "name": "ERC1967NonPayable",
            "type": "error"
        },
        {
            "inputs": [],
            "name": "FailedCall",
            "type": "error"
        },
        {
            "inputs": [],
            "name": "InvalidInitialization",
            "type": "error"
        },
        {
            "inputs": [],
            "name": "NotInitializing",
            "type": "error"
        },
        {
            "inputs": [
                {
                    "internalType": "address",
                    "name": "owner",
                    "type": "address"
                }
            ],
            "name": "OwnableInvalidOwner",
            "type": "error"
        },
        {
            "inputs": [
                {
                    "internalType": "address",
                    "name": "account",
                    "type": "address"
                }
            ],
            "name": "OwnableUnauthorizedAccount",
            "type": "error"
        },
        {
            "inputs": [],
            "name": "UUPSUnauthorizedCallContext",
            "type": "error"
        },
        {
            "inputs": [
                {
                    "internalType": "bytes32",
                    "name": "slot",
                    "type": "bytes32"
                }
            ],
            "name": "UUPSUnsupportedProxiableUUID",
            "type": "error"
        },
        {
            "anonymous": false,
            "inputs": [
                {
                    "indexed": true,
                    "internalType": "address",
                    "name": "auction",
                    "type": "address"
                },
                {
                    "indexed": false,
                    "internalType": "uint256",
                    "name": "duration",
                    "type": "uint256"
                },
                {
                    "indexed": false,
                    "internalType": "uint256",
                    "name": "startPrice",
                    "type": "uint256"
                },
                {
                    "indexed": false,
                    "internalType": "address",
                    "name": "nftContract",
                    "type": "address"
                },
                {
                    "indexed": false,
                    "internalType": "uint256",
                    "name": "nftToken",
                    "type": "uint256"
                }
            ],
            "name": "AuctionCreated",
            "type": "event"
        },
        {
            "anonymous": false,
            "inputs": [
                {
                    "indexed": false,
                    "internalType": "uint64",
                    "name": "version",
                    "type": "uint64"
                }
            ],
            "name": "Initialized",
            "type": "event"
        },
        {
            "anonymous": false,
            "inputs": [
                {
                    "indexed": true,
                    "internalType": "address",
                    "name": "previousOwner",
                    "type": "address"
                },
                {
                    "indexed": true,
                    "internalType": "address",
                    "name": "newOwner",
                    "type": "address"
                }
            ],
            "name": "OwnershipTransferred",
            "type": "event"
        },
        {
            "anonymous": false,
            "inputs": [
                {
                    "indexed": true,
                    "internalType": "address",
                    "name": "implementation",
                    "type": "address"
                }
            ],
            "name": "Upgraded",
            "type": "event"
        },
        {
            "inputs": [],
            "name": "UPGRADE_INTERFACE_VERSION",
            "outputs": [
                {
                    "internalType": "string",
                    "name": "",
                    "type": "string"
                }
            ],
            "stateMutability": "view",
            "type": "function"
        },
        {
            "inputs": [
                {
                    "internalType": "uint256",
                    "name": "",
                    "type": "uint256"
                }
            ],
            "name": "auctions",
            "outputs": [
                {
                    "internalType": "address",
                    "name": "",
                    "type": "address"
                }
            ],
            "stateMutability": "view",
            "type": "function"
        },
        {
            "inputs": [
                {
                    "internalType": "uint256",
                    "name": "duration",
                    "type": "uint256"
                },
                {
                    "internalType": "uint256",
                    "name": "startPrice",
                    "type": "uint256"
                },
                {
                    "internalType": "address",
                    "name": "nftContract",
                    "type": "address"
                },
                {
                    "internalType": "uint256",
                    "name": "nftToken",
                    "type": "uint256"
                }
            ],
            "name": "createAuction",
            "outputs": [
                {
                    "internalType": "address",
                    "name": "",
                    "type": "address"
                }
            ],
            "stateMutability": "nonpayable",
            "type": "function"
        },
        {
            "inputs": [],
            "name": "getAuctionCount",
            "outputs": [
                {
                    "internalType": "uint256",
                    "name": "",
                    "type": "uint256"
                }
            ],
            "stateMutability": "view",
            "type": "function"
        },
        {
            "inputs": [],
            "name": "getAuctions",
            "outputs": [
                {
                    "internalType": "address[]",
                    "name": "",
                    "type": "address[]"
                }
            ],
            "stateMutability": "view",
            "type": "function"
        },
        {
            "inputs": [],
            "name": "initialize",
            "outputs": [],
            "stateMutability": "nonpayable",
            "type": "function"
        },
        {
            "inputs": [
                {
                    "internalType": "address",
                    "name": "",
                    "type": "address"
                }
            ],
            "name": "isAuction",
            "outputs": [
                {
                    "internalType": "bool",
                    "name": "",
                    "type": "bool"
                }
            ],
            "stateMutability": "view",
            "type": "function"
        },
        {
            "inputs": [],
            "name": "owner",
            "outputs": [
                {
                    "internalType": "address",
                    "name": "",
                    "type": "address"
                }
            ],
            "stateMutability": "view",
            "type": "function"
        },
        {
            "inputs": [],
            "name": "proxiableUUID",
            "outputs": [
                {
                    "internalType": "bytes32",
                    "name": "",
                    "type": "bytes32"
                }
            ],
            "stateMutability": "view",
            "type": "function"
        },
        {
            "inputs": [],
            "name": "renounceOwnership",
            "outputs": [],
            "stateMutability": "nonpayable",
            "type": "function"
        },
        {
            "inputs": [
                {
                    "internalType": "address",
                    "name": "newOwner",
                    "type": "address"
                }
            ],
            "name": "transferOwnership",
            "outputs": [],
            "stateMutability": "nonpayable",
            "type": "function"
        },
        {
            "inputs": [
                {
                    "internalType": "address",
                    "name": "newImplementation",
                    "type": "address"
                },
                {
                    "internalType": "bytes",
                    "name": "data",
                    "type": "bytes"
                }
            ],
            "name": "upgradeToAndCall",
            "outputs": [],
            "stateMutability": "payable",
            "type": "function"
        }
    ],
    "bytecode": "60a080604052346100c257306080525f516020610b2c5f395f51905f525460ff8160401c166100b3576002600160401b03196001600160401b03821601610060575b604051610a6590816100c7823960805181818161059f015261066f0152f35b6001600160401b0319166001600160401b039081175f516020610b2c5f395f51905f525581527fc7f505b2f371ae2175ee4913f4499e1f2633a7b5936321eed1cdaeb6115181d290602090a15f80610041565b63f92ee8a960e01b5f5260045ffd5b5f80fdfe60806040526004361015610011575f80fd5b5f3560e01c80634f1ef286146105f357806352d1902d1461058d578063571a26a01461054c578063715018a6146104e55780638129fc1c146103995780638da5cb5b146103655780638ebde50014610328578063ad3cb1cc146102ca578063b1cb48ef146101ae578063c44e664014610192578063d7c06919146100cc5763f2fde38b1461009d575f80fd5b346100c85760203660031901126100c8576100c66100b9610824565b6100c1610913565b6108a2565b005b5f80fd5b346100c8575f3660031901126100c8576040518060205f54928381520180925f80527f290decd9548b62a8d60345a988386fc84ba6bc95484008f6362f93160ef3e563905f5b818110610173575050508161012891038261083a565b604051918291602083019060208452518091526040830191905f5b818110610151575050500390f35b82516001600160a01b0316845285945060209384019390920191600101610143565b82546001600160a01b0316845260209093019260019283019201610112565b346100c8575f3660031901126100c85760205f54604051908152f35b346100c85760803660031901126100c8576024356004356044356001600160a01b038116908190036100c85760643592604051602081014281528460408301528260608301528360808301528560a083015260a0825261020f60c08361083a565b905190205f546001600160a01b0390911693680100000000000000008210156102b65760209585947fd7a69648f3948fd9f460b0dc9d350ce0cb33027f091008f063f0f5df6ac16aa19461026a856001608097015f55610878565b81549060031b9089821b9160018060a01b03901b1916179055865f526001895260405f20600160ff198254161790556040519384528884015260408301526060820152a2604051908152f35b634e487b7160e01b5f52604160045260245ffd5b346100c8575f3660031901126100c85760408051906102e9818361083a565b600582526020820191640352e302e360dc1b83528151928391602083525180918160208501528484015e5f828201840152601f01601f19168101030190f35b346100c85760203660031901126100c8576001600160a01b03610349610824565b165f526001602052602060ff60405f2054166040519015158152f35b346100c8575f3660031901126100c8575f5160206109d05f395f51905f52546040516001600160a01b039091168152602090f35b346100c8575f3660031901126100c8575f516020610a105f395f51905f525460ff8160401c16159067ffffffffffffffff8116801590816104dd575b60011490816104d3575b1590816104ca575b506104bb5767ffffffffffffffff1981166001175f516020610a105f395f51905f52558161048f575b50610419610946565b610421610946565b61042a336108a2565b610432610946565b61043857005b68ff0000000000000000195f516020610a105f395f51905f5254165f516020610a105f395f51905f52557fc7f505b2f371ae2175ee4913f4499e1f2633a7b5936321eed1cdaeb6115181d2602060405160018152a1005b68ffffffffffffffffff191668010000000000000001175f516020610a105f395f51905f525581610410565b63f92ee8a960e01b5f5260045ffd5b905015836103e7565b303b1591506103df565b8391506103d5565b346100c8575f3660031901126100c8576104fd610913565b5f5160206109d05f395f51905f5280546001600160a01b031981169091555f906001600160a01b03167f8be0079c531659141344cd1fd0a4f28419497f9722a3daafe3b4186f6b6457e08280a3005b346100c85760203660031901126100c8576004355f548110156100c857610574602091610878565b905460405160039290921b1c6001600160a01b03168152f35b346100c8575f3660031901126100c8577f00000000000000000000000000000000000000000000000000000000000000006001600160a01b031630036105e45760206040515f5160206109f05f395f51905f528152f35b63703e46dd60e11b5f5260045ffd5b60403660031901126100c857610607610824565b6024359067ffffffffffffffff82116100c857366023830112156100c8578160040135906106348261085c565b91610642604051938461083a565b808352602083019336602483830101116100c857815f926024602093018737840101526001600160a01b037f000000000000000000000000000000000000000000000000000000000000000016308114908115610802575b506105e4576106a7610913565b6040516352d1902d60e01b81526001600160a01b0382169390602081600481885afa5f91816107ce575b506106e95784634c9c8ce360e01b5f5260045260245ffd5b805f5160206109f05f395f51905f528692036107bc5750823b156107aa575f5160206109f05f395f51905f5280546001600160a01b031916821790557fbc7cd75a20ee27fd9adebab32041f755214dbc6bffa90cc0225b39da2e5c2d3b5f80a2825115610791575f80916100c6945190845af43d15610789573d9161076d8361085c565b9261077b604051948561083a565b83523d5f602085013e610971565b606091610971565b5050503461079b57005b63b398979f60e01b5f5260045ffd5b634c9c8ce360e01b5f5260045260245ffd5b632a87526960e21b5f5260045260245ffd5b9091506020813d6020116107fa575b816107ea6020938361083a565b810103126100c8575190866106d1565b3d91506107dd565b5f5160206109f05f395f51905f52546001600160a01b0316141590508461069a565b600435906001600160a01b03821682036100c857565b90601f8019910116810190811067ffffffffffffffff8211176102b657604052565b67ffffffffffffffff81116102b657601f01601f191660200190565b5f5481101561088e575f805260205f2001905f90565b634e487b7160e01b5f52603260045260245ffd5b6001600160a01b03168015610900575f5160206109d05f395f51905f5280546001600160a01b0319811683179091556001600160a01b03167f8be0079c531659141344cd1fd0a4f28419497f9722a3daafe3b4186f6b6457e05f80a3565b631e4fbdf760e01b5f525f60045260245ffd5b5f5160206109d05f395f51905f52546001600160a01b0316330361093357565b63118cdaa760e01b5f523360045260245ffd5b60ff5f516020610a105f395f51905f525460401c161561096257565b631afcd79f60e31b5f5260045ffd5b90610995575080511561098657602081519101fd5b63d6bda27560e01b5f5260045ffd5b815115806109c6575b6109a6575090565b639996b31560e01b5f9081526001600160a01b0391909116600452602490fd5b50803b1561099e56fe9016d09d72d40fdae2fd8ceac6b6234c7706214fd39c1cd1e609a0528c199300360894a13ba1a3210667c828492db98dca3e2076cc3735a920a3ca505d382bbcf0c57e16840df040f15088dc2f81fe391c3923bec73e23a9662efc9c229c6a00a2646970667358221220d15f66da2e795e77db8f79ced7776bf3ff3dc576239e2068ee9c07ebf336578b64736f6c634300081e0033f0c57e16840df040f15088dc2f81fe391c3923bec73e23a9662efc9c229c6a00",
    "sourcePath": "d:/Project/task3/contracts/AuctionFactory.sol",
    "compiler": {
        "name": "solc",
        "version": "0.8.30+commit.73712a01"
    },
    "functionHashes": {
        "UPGRADE_INTERFACE_VERSION()": "ad3cb1cc",
        "auctions(uint256)": "571a26a0",
        "createAuction(uint256,uint256,address,uint256)": "b1cb48ef",
        "getAuctionCount()": "c44e6640",
        "getAuctions()": "d7c06919",
        "initialize()": "8129fc1c",
        "isAuction(address)": "8ebde500",
        "owner()": "8da5cb5b",
        "proxiableUUID()": "52d1902d",
        "renounceOwnership()": "715018a6",
        "transferOwnership(address)": "f2fde38b",
        "upgradeToAndCall(address,bytes)": "4f1ef286"
    },
    "gasEstimates": {
        "creation": {
            "codeDepositCost": "532200",
            "executionCost": "infinite",
            "totalCost": "infinite"
        },
        "external": {
            "UPGRADE_INTERFACE_VERSION()": "554",
            "auctions(uint256)": "6667",
            "createAuction(uint256,uint256,address,uint256)": "77919",
            "getAuctionCount()": "2445",
            "getAuctions()": "infinite",
            "initialize()": "infinite",
            "isAuction(address)": "2542",
            "owner()": "infinite",
            "proxiableUUID()": "infinite",
            "renounceOwnership()": "28176",
            "transferOwnership(address)": "28484",
            "upgradeToAndCall(address,bytes)": "infinite"
        },
        "internal": {
            "_authorizeUpgrade(address)": "infinite"
        }
    }
}