{
    "contractName": "AuctionV1",
    "abi": [
        {
            "inputs": [],
            "stateMutability": "nonpayable",
            "type": "constructor"
        },
        {
            "inputs": [
                {
                    "internalType": "address",
                    "name": "target",
                    "type": "address"
                }
            ],
            "name": "AddressEmptyCode",
            "type": "error"
        },
        {
            "inputs": [
                {
                    "internalType": "address",
                    "name": "implementation",
                    "type": "address"
                }
            ],
            "name": "ERC1967InvalidImplementation",
            "type": "error"
        },
        {
            "inputs": [],
            "name": "ERC1967NonPayable",
            "type": "error"
        },
        {
            "inputs": [],
            "name": "FailedCall",
            "type": "error"
        },
        {
            "inputs": [],
            "name": "InvalidInitialization",
            "type": "error"
        },
        {
            "inputs": [],
            "name": "NotInitializing",
            "type": "error"
        },
        {
            "inputs": [
                {
                    "internalType": "address",
                    "name": "owner",
                    "type": "address"
                }
            ],
            "name": "OwnableInvalidOwner",
            "type": "error"
        },
        {
            "inputs": [
                {
                    "internalType": "address",
                    "name": "account",
                    "type": "address"
                }
            ],
            "name": "OwnableUnauthorizedAccount",
            "type": "error"
        },
        {
            "inputs": [],
            "name": "UUPSUnauthorizedCallContext",
            "type": "error"
        },
        {
            "inputs": [
                {
                    "internalType": "bytes32",
                    "name": "slot",
                    "type": "bytes32"
                }
            ],
            "name": "UUPSUnsupportedProxiableUUID",
            "type": "error"
        },
        {
            "anonymous": false,
            "inputs": [
                {
                    "indexed": false,
                    "internalType": "address",
                    "name": "winner",
                    "type": "address"
                },
                {
                    "indexed": false,
                    "internalType": "uint256",
                    "name": "amount",
                    "type": "uint256"
                }
            ],
            "name": "AuctionEnded",
            "type": "event"
        },
        {
            "anonymous": false,
            "inputs": [
                {
                    "indexed": false,
                    "internalType": "uint256",
                    "name": "duration",
                    "type": "uint256"
                },
                {
                    "indexed": false,
                    "internalType": "uint256",
                    "name": "startPrice",
                    "type": "uint256"
                },
                {
                    "indexed": false,
                    "internalType": "address",
                    "name": "nftContract",
                    "type": "address"
                },
                {
                    "indexed": false,
                    "internalType": "uint256",
                    "name": "nftToken",
                    "type": "uint256"
                }
            ],
            "name": "AuctionStarted",
            "type": "event"
        },
        {
            "anonymous": false,
            "inputs": [
                {
                    "indexed": false,
                    "internalType": "uint64",
                    "name": "version",
                    "type": "uint64"
                }
            ],
            "name": "Initialized",
            "type": "event"
        },
        {
            "anonymous": false,
            "inputs": [
                {
                    "indexed": false,
                    "internalType": "address",
                    "name": "bidder",
                    "type": "address"
                },
                {
                    "indexed": false,
                    "internalType": "uint256",
                    "name": "amount",
                    "type": "uint256"
                }
            ],
            "name": "NewHighestBid",
            "type": "event"
        },
        {
            "anonymous": false,
            "inputs": [
                {
                    "indexed": true,
                    "internalType": "address",
                    "name": "previousOwner",
                    "type": "address"
                },
                {
                    "indexed": true,
                    "internalType": "address",
                    "name": "newOwner",
                    "type": "address"
                }
            ],
            "name": "OwnershipTransferred",
            "type": "event"
        },
        {
            "anonymous": false,
            "inputs": [
                {
                    "indexed": true,
                    "internalType": "address",
                    "name": "implementation",
                    "type": "address"
                }
            ],
            "name": "Upgraded",
            "type": "event"
        },
        {
            "inputs": [],
            "name": "UPGRADE_INTERFACE_VERSION",
            "outputs": [
                {
                    "internalType": "string",
                    "name": "",
                    "type": "string"
                }
            ],
            "stateMutability": "view",
            "type": "function"
        },
        {
            "inputs": [],
            "name": "auctionEndTime",
            "outputs": [
                {
                    "internalType": "uint256",
                    "name": "",
                    "type": "uint256"
                }
            ],
            "stateMutability": "view",
            "type": "function"
        },
        {
            "inputs": [],
            "name": "bid",
            "outputs": [],
            "stateMutability": "payable",
            "type": "function"
        },
        {
            "inputs": [],
            "name": "duration",
            "outputs": [
                {
                    "internalType": "uint256",
                    "name": "",
                    "type": "uint256"
                }
            ],
            "stateMutability": "view",
            "type": "function"
        },
        {
            "inputs": [],
            "name": "endAuction",
            "outputs": [],
            "stateMutability": "nonpayable",
            "type": "function"
        },
        {
            "inputs": [],
            "name": "ended",
            "outputs": [
                {
                    "internalType": "bool",
                    "name": "",
                    "type": "bool"
                }
            ],
            "stateMutability": "view",
            "type": "function"
        },
        {
            "inputs": [],
            "name": "highestBid",
            "outputs": [
                {
                    "internalType": "uint256",
                    "name": "",
                    "type": "uint256"
                }
            ],
            "stateMutability": "view",
            "type": "function"
        },
        {
            "inputs": [],
            "name": "highestBidder",
            "outputs": [
                {
                    "internalType": "address",
                    "name": "",
                    "type": "address"
                }
            ],
            "stateMutability": "view",
            "type": "function"
        },
        {
            "inputs": [
                {
                    "internalType": "uint256",
                    "name": "_duration",
                    "type": "uint256"
                },
                {
                    "internalType": "uint256",
                    "name": "_startPrice",
                    "type": "uint256"
                },
                {
                    "internalType": "address",
                    "name": "_nftContract",
                    "type": "address"
                },
                {
                    "internalType": "uint256",
                    "name": "_nftToken",
                    "type": "uint256"
                }
            ],
            "name": "initialize",
            "outputs": [],
            "stateMutability": "nonpayable",
            "type": "function"
        },
        {
            "inputs": [],
            "name": "nftContract",
            "outputs": [
                {
                    "internalType": "address",
                    "name": "",
                    "type": "address"
                }
            ],
            "stateMutability": "view",
            "type": "function"
        },
        {
            "inputs": [],
            "name": "nftToken",
            "outputs": [
                {
                    "internalType": "uint256",
                    "name": "",
                    "type": "uint256"
                }
            ],
            "stateMutability": "view",
            "type": "function"
        },
        {
            "inputs": [],
            "name": "owner",
            "outputs": [
                {
                    "internalType": "address",
                    "name": "",
                    "type": "address"
                }
            ],
            "stateMutability": "view",
            "type": "function"
        },
        {
            "inputs": [
                {
                    "internalType": "address",
                    "name": "",
                    "type": "address"
                }
            ],
            "name": "pendingReturns",
            "outputs": [
                {
                    "internalType": "uint256",
                    "name": "",
                    "type": "uint256"
                }
            ],
            "stateMutability": "view",
            "type": "function"
        },
        {
            "inputs": [],
            "name": "proxiableUUID",
            "outputs": [
                {
                    "internalType": "bytes32",
                    "name": "",
                    "type": "bytes32"
                }
            ],
            "stateMutability": "view",
            "type": "function"
        },
        {
            "inputs": [],
            "name": "renounceOwnership",
            "outputs": [],
            "stateMutability": "nonpayable",
            "type": "function"
        },
        {
            "inputs": [],
            "name": "startPrice",
            "outputs": [
                {
                    "internalType": "uint256",
                    "name": "",
                    "type": "uint256"
                }
            ],
            "stateMutability": "view",
            "type": "function"
        },
        {
            "inputs": [
                {
                    "internalType": "address",
                    "name": "newOwner",
                    "type": "address"
                }
            ],
            "name": "transferOwnership",
            "outputs": [],
            "stateMutability": "nonpayable",
            "type": "function"
        },
        {
            "inputs": [
                {
                    "internalType": "address",
                    "name": "newImplementation",
                    "type": "address"
                },
                {
                    "internalType": "bytes",
                    "name": "data",
                    "type": "bytes"
                }
            ],
            "name": "upgradeToAndCall",
            "outputs": [],
            "stateMutability": "payable",
            "type": "function"
        },
        {
            "inputs": [],
            "name": "withdraw",
            "outputs": [
                {
                    "internalType": "bool",
                    "name": "",
                    "type": "bool"
                }
            ],
            "stateMutability": "nonpayable",
            "type": "function"
        }
    ],
    "bytecode": "60a080604052346100c257306080525f516020610eb35f395f51905f525460ff8160401c166100b3576002600160401b03196001600160401b03821601610060575b604051610dec90816100c782396080518181816106ad015261077d0152f35b6001600160401b0319166001600160401b039081175f516020610eb35f395f51905f525581527fc7f505b2f371ae2175ee4913f4499e1f2633a7b5936321eed1cdaeb6115181d290602090a15f80610041565b63f92ee8a960e01b5f5260045ffd5b5f80fdfe6080806040526004361015610012575f80fd5b5f905f3560e01c9081630fb5a6b414610b3b5750806312fa6feb14610b195780631998aeef146109ad57806326b387bb146109755780633ccfd60b146109515780634b449cba146109345780634f1ef2861461070157806352d1902d1461069b578063715018a6146106345780638da5cb5b1461060057806391f90157146105d8578063ad3cb1cc1461057a578063cf9640b414610318578063d06fcba8146102fa578063d56d229d146102d1578063d57bde79146102b3578063f1a9af8914610295578063f2fde38b146102685763fe67a54b146100ef575f80fd5b346101c857806003193601126101c857600454421061022b5760075460ff81166101db5760ff1916600117600755600554600654604080516001600160a01b03909316808452602084019290925283927fdaec4582d5d9595688c8c98545fdd1c696d41c6aeaeb636737e84ed2f5c00eda9190a18061016b5750f35b60018060a01b036002541690600354823b156101d65760648492836040519586948593632142170760e11b8552306004860152602485015260448401525af180156101cb576101b75750f35b816101c191610b6a565b6101c85780f35b80fd5b6040513d84823e3d90fd5b505050fd5b60405162461bcd60e51b815260206004820152602260248201527f41756374696f6e456e642068617320616c7265616479206265656e2063616c6c604482015261195960f21b6064820152608490fd5b60405162461bcd60e51b8152602060048201526015602482015274105d58dd1a5bdb881b9bdd081e595d08195b991959605a1b6044820152606490fd5b50346101c85760203660031901126101c857610292610285610b54565b61028d610c9a565b610c29565b80f35b50346101c857806003193601126101c8576020600154604051908152f35b50346101c857806003193601126101c8576020600654604051908152f35b50346101c857806003193601126101c8576002546040516001600160a01b039091168152602090f35b50346101c857806003193601126101c8576020600354604051908152f35b5034610520576080366003190112610520576024356004356044356001600160a01b0381169081900361052057606435905f516020610d975f395f51905f52549360ff8560401c16159467ffffffffffffffff811680159081610572575b6001149081610568575b15908161055f575b506105505767ffffffffffffffff1981166001175f516020610d975f395f51905f525585610524575b506103ba610ccd565b6103c2610ccd565b6103cb33610c29565b6103d3610ccd565b813b156105205760405163095ea7b360e01b8152306004820152602481018490525f8160448183875af18015610515576104d6575b509183916080937fb38a1782d8bcb01a86899f8b2d36fc8e7d44d40e52e1436adff077059327a0ec95885580600155816bffffffffffffffffffffffff60a01b60025416176002558260035561045e8442610bbc565b600455604051938452602084015260408301526060820152a161047e5780f35b68ff0000000000000000195f516020610d975f395f51905f5254165f516020610d975f395f51905f52557fc7f505b2f371ae2175ee4913f4499e1f2633a7b5936321eed1cdaeb6115181d2602060405160018152a180f35b608093919650916105095f7fb38a1782d8bcb01a86899f8b2d36fc8e7d44d40e52e1436adff077059327a0ec9694610b6a565b5f969193509193610408565b6040513d5f823e3d90fd5b5f80fd5b68ffffffffffffffffff191668010000000000000001175f516020610d975f395f51905f52555f6103b1565b63f92ee8a960e01b5f5260045ffd5b9050155f610388565b303b159150610380565b879150610376565b34610520575f3660031901126105205760408051906105998183610b6a565b600582526020820191640352e302e360dc1b83528151928391602083525180918160208501528484015e5f828201840152601f01601f19168101030190f35b34610520575f366003190112610520576005546040516001600160a01b039091168152602090f35b34610520575f366003190112610520575f516020610d575f395f51905f52546040516001600160a01b039091168152602090f35b34610520575f3660031901126105205761064c610c9a565b5f516020610d575f395f51905f5280546001600160a01b031981169091555f906001600160a01b03167f8be0079c531659141344cd1fd0a4f28419497f9722a3daafe3b4186f6b6457e08280a3005b34610520575f366003190112610520577f00000000000000000000000000000000000000000000000000000000000000006001600160a01b031630036106f25760206040515f516020610d775f395f51905f528152f35b63703e46dd60e11b5f5260045ffd5b604036600319011261052057610715610b54565b6024359067ffffffffffffffff821161052057366023830112156105205781600401359061074282610ba0565b916107506040519384610b6a565b8083526020830193366024838301011161052057815f926024602093018737840101526001600160a01b037f000000000000000000000000000000000000000000000000000000000000000016308114908115610912575b506106f2576107b5610c9a565b6040516352d1902d60e01b81526001600160a01b0382169390602081600481885afa5f91816108de575b506107f75784634c9c8ce360e01b5f5260045260245ffd5b805f516020610d775f395f51905f528692036108cc5750823b156108ba575f516020610d775f395f51905f5280546001600160a01b031916821790557fbc7cd75a20ee27fd9adebab32041f755214dbc6bffa90cc0225b39da2e5c2d3b5f80a28251156108a1575f8091610897945190845af43d15610899573d9161087b83610ba0565b926108896040519485610b6a565b83523d5f602085013e610cf8565b005b606091610cf8565b505050346108ab57005b63b398979f60e01b5f5260045ffd5b634c9c8ce360e01b5f5260045260245ffd5b632a87526960e21b5f5260045260245ffd5b9091506020813d60201161090a575b816108fa60209383610b6a565b81010312610520575190866107df565b3d91506108ed565b5f516020610d775f395f51905f52546001600160a01b031614159050846107a8565b34610520575f366003190112610520576020600454604051908152f35b34610520575f36600319011261052057602061096b610bdd565b6040519015158152f35b34610520576020366003190112610520576001600160a01b03610996610b54565b165f526008602052602060405f2054604051908152f35b5f366003190112610520576004544211610adc5760065480341115610a97576001543410610a535780610a2a575b600580546001600160a01b031916339081179091553460068190556040805192835260208301919091527fdeda60fb6e38f55d4ccab679f50f933d04b1dca8584775216dbdac46f251ca4a91a1005b60018060a01b03600554165f526008602052610a4b60405f20918254610bbc565b9055806109db565b606460405162461bcd60e51b815260206004820152602060248201527f426964206d757374206265206174206c656173742073746172742070726963656044820152fd5b60405162461bcd60e51b815260206004820152601d60248201527f546865726520616c7265616479206973206120686967686572206269640000006044820152606490fd5b60405162461bcd60e51b8152602060048201526015602482015274105d58dd1a5bdb88185b1c9958591e48195b991959605a1b6044820152606490fd5b34610520575f36600319011261052057602060ff600754166040519015158152f35b34610520575f366003190112610520576020905f548152f35b600435906001600160a01b038216820361052057565b90601f8019910116810190811067ffffffffffffffff821117610b8c57604052565b634e487b7160e01b5f52604160045260245ffd5b67ffffffffffffffff8111610b8c57601f01601f191660200190565b91908201809211610bc957565b634e487b7160e01b5f52601160045260245ffd5b335f52600860205260405f205480158015610bf85750505f90565b5f808093819333835260086020528260408120558290610c20575b3390f11561051557600190565b506108fc610c13565b6001600160a01b03168015610c87575f516020610d575f395f51905f5280546001600160a01b0319811683179091556001600160a01b03167f8be0079c531659141344cd1fd0a4f28419497f9722a3daafe3b4186f6b6457e05f80a3565b631e4fbdf760e01b5f525f60045260245ffd5b5f516020610d575f395f51905f52546001600160a01b03163303610cba57565b63118cdaa760e01b5f523360045260245ffd5b60ff5f516020610d975f395f51905f525460401c1615610ce957565b631afcd79f60e31b5f5260045ffd5b90610d1c5750805115610d0d57602081519101fd5b63d6bda27560e01b5f5260045ffd5b81511580610d4d575b610d2d575090565b639996b31560e01b5f9081526001600160a01b0391909116600452602490fd5b50803b15610d2556fe9016d09d72d40fdae2fd8ceac6b6234c7706214fd39c1cd1e609a0528c199300360894a13ba1a3210667c828492db98dca3e2076cc3735a920a3ca505d382bbcf0c57e16840df040f15088dc2f81fe391c3923bec73e23a9662efc9c229c6a00a2646970667358221220441fd71ba9615af7f184c1013b4a306518f20dd963213f6d4632ff25ae7ee4e764736f6c634300081e0033f0c57e16840df040f15088dc2f81fe391c3923bec73e23a9662efc9c229c6a00",
    "sourcePath": "d:/Project/task3/contracts/AuctionV1.sol",
    "compiler": {
        "name": "solc",
        "version": "0.8.30+commit.73712a01"
    },
    "functionHashes": {
        "UPGRADE_INTERFACE_VERSION()": "ad3cb1cc",
        "auctionEndTime()": "4b449cba",
        "bid()": "1998aeef",
        "duration()": "0fb5a6b4",
        "endAuction()": "fe67a54b",
        "ended()": "12fa6feb",
        "highestBid()": "d57bde79",
        "highestBidder()": "91f90157",
        "initialize(uint256,uint256,address,uint256)": "cf9640b4",
        "nftContract()": "d56d229d",
        "nftToken()": "d06fcba8",
        "owner()": "8da5cb5b",
        "pendingReturns(address)": "26b387bb",
        "proxiableUUID()": "52d1902d",
        "renounceOwnership()": "715018a6",
        "startPrice()": "f1a9af89",
        "transferOwnership(address)": "f2fde38b",
        "upgradeToAndCall(address,bytes)": "4f1ef286",
        "withdraw()": "3ccfd60b"
    },
    "gasEstimates": {
        "creation": {
            "codeDepositCost": "712800",
            "executionCost": "infinite",
            "totalCost": "infinite"
        },
        "external": {
            "UPGRADE_INTERFACE_VERSION()": "655",
            "auctionEndTime()": "2371",
            "bid()": "80684",
            "duration()": "2252",
            "endAuction()": "infinite",
            "ended()": "2295",
            "highestBid()": "2594",
            "highestBidder()": "2505",
            "initialize(uint256,uint256,address,uint256)": "infinite",
            "nftContract()": "2596",
            "nftToken()": "2550",
            "owner()": "infinite",
            "pendingReturns(address)": "2477",
            "proxiableUUID()": "infinite",
            "renounceOwnership()": "28299",
            "startPrice()": "2616",
            "transferOwnership(address)": "28637",
            "upgradeToAndCall(address,bytes)": "infinite",
            "withdraw()": "infinite"
        },
        "internal": {
            "_authorizeUpgrade(address)": "infinite"
        }
    }
}